{
  "contractName": "TokenFarm",
  "abi": [
    {
      "inputs": [
        {
          "internalType": "address",
          "name": "_stakeToken",
          "type": "address"
        },
        {
          "internalType": "address",
          "name": "_daiToken",
          "type": "address"
        }
      ],
      "stateMutability": "nonpayable",
      "type": "constructor"
    },
    {
      "anonymous": false,
      "inputs": [
        {
          "indexed": true,
          "internalType": "address",
          "name": "previousOwner",
          "type": "address"
        },
        {
          "indexed": true,
          "internalType": "address",
          "name": "newOwner",
          "type": "address"
        }
      ],
      "name": "OwnershipTransferred",
      "type": "event"
    },
    {
      "inputs": [],
      "name": "daiToken",
      "outputs": [
        {
          "internalType": "contract IERC20",
          "name": "",
          "type": "address"
        }
      ],
      "stateMutability": "view",
      "type": "function",
      "constant": true
    },
    {
      "inputs": [],
      "name": "owner",
      "outputs": [
        {
          "internalType": "address",
          "name": "",
          "type": "address"
        }
      ],
      "stateMutability": "view",
      "type": "function",
      "constant": true
    },
    {
      "inputs": [],
      "name": "renounceOwnership",
      "outputs": [],
      "stateMutability": "nonpayable",
      "type": "function"
    },
    {
      "inputs": [],
      "name": "stakeToken",
      "outputs": [
        {
          "internalType": "contract IERC20",
          "name": "",
          "type": "address"
        }
      ],
      "stateMutability": "view",
      "type": "function",
      "constant": true
    },
    {
      "inputs": [
        {
          "internalType": "uint256",
          "name": "",
          "type": "uint256"
        }
      ],
      "name": "stakers",
      "outputs": [
        {
          "internalType": "address",
          "name": "",
          "type": "address"
        }
      ],
      "stateMutability": "view",
      "type": "function",
      "constant": true
    },
    {
      "inputs": [
        {
          "internalType": "address",
          "name": "",
          "type": "address"
        }
      ],
      "name": "stakingBalance",
      "outputs": [
        {
          "internalType": "uint256",
          "name": "",
          "type": "uint256"
        }
      ],
      "stateMutability": "view",
      "type": "function",
      "constant": true
    },
    {
      "inputs": [
        {
          "internalType": "address",
          "name": "newOwner",
          "type": "address"
        }
      ],
      "name": "transferOwnership",
      "outputs": [],
      "stateMutability": "nonpayable",
      "type": "function"
    },
    {
      "inputs": [
        {
          "internalType": "uint256",
          "name": "_amount",
          "type": "uint256"
        }
      ],
      "name": "stakeTokens",
      "outputs": [],
      "stateMutability": "nonpayable",
      "type": "function"
    },
    {
      "inputs": [],
      "name": "unstakeTokens",
      "outputs": [],
      "stateMutability": "nonpayable",
      "type": "function"
    },
    {
      "inputs": [],
      "name": "issueTokens",
      "outputs": [],
      "stateMutability": "nonpayable",
      "type": "function"
    }
  ],
  "bytecode": "0x60806040523480156200001157600080fd5b506040516200135038038062001350833981810160405281019062000037919062000217565b620000576200004b620000e160201b60201c565b620000e960201b60201c565b81600160006101000a81548173ffffffffffffffffffffffffffffffffffffffff021916908373ffffffffffffffffffffffffffffffffffffffff16021790555080600260006101000a81548173ffffffffffffffffffffffffffffffffffffffff021916908373ffffffffffffffffffffffffffffffffffffffff16021790555050506200025e565b600033905090565b60008060009054906101000a900473ffffffffffffffffffffffffffffffffffffffff169050816000806101000a81548173ffffffffffffffffffffffffffffffffffffffff021916908373ffffffffffffffffffffffffffffffffffffffff1602179055508173ffffffffffffffffffffffffffffffffffffffff168173ffffffffffffffffffffffffffffffffffffffff167f8be0079c531659141344cd1fd0a4f28419497f9722a3daafe3b4186f6b6457e060405160405180910390a35050565b600080fd5b600073ffffffffffffffffffffffffffffffffffffffff82169050919050565b6000620001df82620001b2565b9050919050565b620001f181620001d2565b8114620001fd57600080fd5b50565b6000815190506200021181620001e6565b92915050565b60008060408385031215620002315762000230620001ad565b5b6000620002418582860162000200565b9250506020620002548582860162000200565b9150509250929050565b6110e2806200026e6000396000f3fe608060405234801561001057600080fd5b506004361061009e5760003560e01c80638da5cb5b116100665780638da5cb5b14610121578063a5ce413b1461013f578063be22f54614610149578063f2fde38b14610167578063fd5e6dd1146101835761009e565b806345bc78ab146100a357806351ed6a30146100d357806360ab5852146100f1578063715018a6146100fb5780637547c7a314610105575b600080fd5b6100bd60048036038101906100b89190610b80565b6101b3565b6040516100ca9190610bc6565b60405180910390f35b6100db6101cb565b6040516100e89190610c40565b60405180910390f35b6100f96101f1565b005b610103610476565b005b61011f600480360381019061011a9190610c87565b6104fe565b005b6101296106ae565b6040516101369190610cc3565b60405180910390f35b6101476106d7565b005b610151610847565b60405161015e9190610c40565b60405180910390f35b610181600480360381019061017c9190610b80565b61086d565b005b61019d60048036038101906101989190610c87565b610964565b6040516101aa9190610cc3565b60405180910390f35b60046020528060005260406000206000915090505481565b600160009054906101000a900473ffffffffffffffffffffffffffffffffffffffff1681565b6101f96109a3565b73ffffffffffffffffffffffffffffffffffffffff166102176106ae565b73ffffffffffffffffffffffffffffffffffffffff161461026d576040517f08c379a000000000000000000000000000000000000000000000000000000000815260040161026490610d3b565b60405180910390fd5b60005b600380549050811015610473576000600460006003848154811061029757610296610d5b565b5b9060005260206000200160009054906101000a900473ffffffffffffffffffffffffffffffffffffffff1673ffffffffffffffffffffffffffffffffffffffff1673ffffffffffffffffffffffffffffffffffffffff16815260200190815260200160002054111561046057600160009054906101000a900473ffffffffffffffffffffffffffffffffffffffff1673ffffffffffffffffffffffffffffffffffffffff1663a9059cbb6003838154811061035557610354610d5b565b5b9060005260206000200160009054906101000a900473ffffffffffffffffffffffffffffffffffffffff16600460006003868154811061039857610397610d5b565b5b9060005260206000200160009054906101000a900473ffffffffffffffffffffffffffffffffffffffff1673ffffffffffffffffffffffffffffffffffffffff1673ffffffffffffffffffffffffffffffffffffffff168152602001908152602001600020546040518363ffffffff1660e01b815260040161041b929190610d8a565b6020604051808303816000875af115801561043a573d6000803e3d6000fd5b505050506040513d601f19601f8201168201806040525081019061045e9190610deb565b505b808061046b90610e47565b915050610270565b50565b61047e6109a3565b73ffffffffffffffffffffffffffffffffffffffff1661049c6106ae565b73ffffffffffffffffffffffffffffffffffffffff16146104f2576040517f08c379a00000000000000000000000000000000000000000000000000000000081526004016104e990610d3b565b60405180910390fd5b6104fc60006109ab565b565b60008111610541576040517f08c379a000000000000000000000000000000000000000000000000000000000815260040161053890610f01565b60405180910390fd5b600260009054906101000a900473ffffffffffffffffffffffffffffffffffffffff1673ffffffffffffffffffffffffffffffffffffffff166323b872dd3330846040518463ffffffff1660e01b81526004016105a093929190610f21565b6020604051808303816000875af11580156105bf573d6000803e3d6000fd5b505050506040513d601f19601f820116820180604052508101906105e39190610deb565b5080600460003373ffffffffffffffffffffffffffffffffffffffff1673ffffffffffffffffffffffffffffffffffffffff16815260200190815260200160002060008282546106339190610f58565b9250508190555061064333610a6f565b6106ab576003339080600181540180825580915050600190039060005260206000200160009091909190916101000a81548173ffffffffffffffffffffffffffffffffffffffff021916908373ffffffffffffffffffffffffffffffffffffffff1602179055505b50565b60008060009054906101000a900473ffffffffffffffffffffffffffffffffffffffff16905090565b6000600460003373ffffffffffffffffffffffffffffffffffffffff1673ffffffffffffffffffffffffffffffffffffffff1681526020019081526020016000205490506000811161075e576040517f08c379a000000000000000000000000000000000000000000000000000000000815260040161075590610ffa565b60405180910390fd5b600260009054906101000a900473ffffffffffffffffffffffffffffffffffffffff1673ffffffffffffffffffffffffffffffffffffffff1663a9059cbb33836040518363ffffffff1660e01b81526004016107bb929190610d8a565b6020604051808303816000875af11580156107da573d6000803e3d6000fd5b505050506040513d601f19601f820116820180604052508101906107fe9190610deb565b506000600460003373ffffffffffffffffffffffffffffffffffffffff1673ffffffffffffffffffffffffffffffffffffffff1681526020019081526020016000208190555050565b600260009054906101000a900473ffffffffffffffffffffffffffffffffffffffff1681565b6108756109a3565b73ffffffffffffffffffffffffffffffffffffffff166108936106ae565b73ffffffffffffffffffffffffffffffffffffffff16146108e9576040517f08c379a00000000000000000000000000000000000000000000000000000000081526004016108e090610d3b565b60405180910390fd5b600073ffffffffffffffffffffffffffffffffffffffff168173ffffffffffffffffffffffffffffffffffffffff1603610958576040517f08c379a000000000000000000000000000000000000000000000000000000000815260040161094f9061108c565b60405180910390fd5b610961816109ab565b50565b6003818154811061097457600080fd5b906000526020600020016000915054906101000a900473ffffffffffffffffffffffffffffffffffffffff1681565b600033905090565b60008060009054906101000a900473ffffffffffffffffffffffffffffffffffffffff169050816000806101000a81548173ffffffffffffffffffffffffffffffffffffffff021916908373ffffffffffffffffffffffffffffffffffffffff1602179055508173ffffffffffffffffffffffffffffffffffffffff168173ffffffffffffffffffffffffffffffffffffffff167f8be0079c531659141344cd1fd0a4f28419497f9722a3daafe3b4186f6b6457e060405160405180910390a35050565b600080600090505b600380549050811015610b12578273ffffffffffffffffffffffffffffffffffffffff1660038281548110610aaf57610aae610d5b565b5b9060005260206000200160009054906101000a900473ffffffffffffffffffffffffffffffffffffffff1673ffffffffffffffffffffffffffffffffffffffff1603610aff576001915050610b18565b8080610b0a90610e47565b915050610a77565b50600090505b919050565b600080fd5b600073ffffffffffffffffffffffffffffffffffffffff82169050919050565b6000610b4d82610b22565b9050919050565b610b5d81610b42565b8114610b6857600080fd5b50565b600081359050610b7a81610b54565b92915050565b600060208284031215610b9657610b95610b1d565b5b6000610ba484828501610b6b565b91505092915050565b6000819050919050565b610bc081610bad565b82525050565b6000602082019050610bdb6000830184610bb7565b92915050565b6000819050919050565b6000610c06610c01610bfc84610b22565b610be1565b610b22565b9050919050565b6000610c1882610beb565b9050919050565b6000610c2a82610c0d565b9050919050565b610c3a81610c1f565b82525050565b6000602082019050610c556000830184610c31565b92915050565b610c6481610bad565b8114610c6f57600080fd5b50565b600081359050610c8181610c5b565b92915050565b600060208284031215610c9d57610c9c610b1d565b5b6000610cab84828501610c72565b91505092915050565b610cbd81610b42565b82525050565b6000602082019050610cd86000830184610cb4565b92915050565b600082825260208201905092915050565b7f4f776e61626c653a2063616c6c6572206973206e6f7420746865206f776e6572600082015250565b6000610d25602083610cde565b9150610d3082610cef565b602082019050919050565b60006020820190508181036000830152610d5481610d18565b9050919050565b7f4e487b7100000000000000000000000000000000000000000000000000000000600052603260045260246000fd5b6000604082019050610d9f6000830185610cb4565b610dac6020830184610bb7565b9392505050565b60008115159050919050565b610dc881610db3565b8114610dd357600080fd5b50565b600081519050610de581610dbf565b92915050565b600060208284031215610e0157610e00610b1d565b5b6000610e0f84828501610dd6565b91505092915050565b7f4e487b7100000000000000000000000000000000000000000000000000000000600052601160045260246000fd5b6000610e5282610bad565b91507fffffffffffffffffffffffffffffffffffffffffffffffffffffffffffffffff8203610e8457610e83610e18565b5b600182019050919050565b7f5374616b6520616d6f756e74206e6565647320746f206265206772656174657260008201527f207468616e207a65726f21000000000000000000000000000000000000000000602082015250565b6000610eeb602b83610cde565b9150610ef682610e8f565b604082019050919050565b60006020820190508181036000830152610f1a81610ede565b9050919050565b6000606082019050610f366000830186610cb4565b610f436020830185610cb4565b610f506040830184610bb7565b949350505050565b6000610f6382610bad565b9150610f6e83610bad565b9250827fffffffffffffffffffffffffffffffffffffffffffffffffffffffffffffffff03821115610fa357610fa2610e18565b5b828201905092915050565b7f43616e6e6f7420756e7374616b65203020746f6b656e73210000000000000000600082015250565b6000610fe4601883610cde565b9150610fef82610fae565b602082019050919050565b6000602082019050818103600083015261101381610fd7565b9050919050565b7f4f776e61626c653a206e6577206f776e657220697320746865207a65726f206160008201527f6464726573730000000000000000000000000000000000000000000000000000602082015250565b6000611076602683610cde565b91506110818261101a565b604082019050919050565b600060208201905081810360008301526110a581611069565b905091905056fea2646970667358221220bcef4b4ec4b569dbc2a38952c7141098344f9854bbb0680654e2a26eb679b12464736f6c634300080e0033",
  "immutableReferences": {},
  "source": "// SPDX-License-Identifier: MIT\r\npragma solidity ^0.8.7;\r\n\r\n// stake tokens\r\n// unstake tokens\r\n// issue tokens\r\n// timelock\r\n\r\nimport \"@openzeppelin/contracts/token/ERC20/IERC20.sol\";\r\nimport \"@openzeppelin/contracts/access/Ownable.sol\";\r\n\r\ncontract TokenFarm is Ownable {\r\n    IERC20 public stakeToken;\r\n    IERC20 public daiToken;\r\n    address[] public stakers;\r\n\r\n    mapping(address => uint256) public stakingBalance;\r\n\r\n    constructor(address _stakeToken, address _daiToken) public {\r\n        stakeToken = IERC20(_stakeToken);\r\n        daiToken = IERC20(_daiToken);\r\n    }\r\n\r\n    function checkAddressExists(address _address) internal view returns (bool) {\r\n        for (uint256 i = 0; i < stakers.length; i++) {\r\n            if (stakers[i] == _address) {\r\n                return true;\r\n            }\r\n        }\r\n        return false;\r\n    }\r\n\r\n    function stakeTokens(uint256 _amount) public {\r\n        require(_amount > 0, \"Stake amount needs to be greater than zero!\");\r\n        daiToken.transferFrom(msg.sender, address(this), _amount);\r\n        stakingBalance[msg.sender] += _amount;\r\n        if (!checkAddressExists(msg.sender)) {\r\n            stakers.push(msg.sender);\r\n        }\r\n    }\r\n\r\n    function unstakeTokens() public {\r\n        uint256 balance = stakingBalance[msg.sender];\r\n        require(balance > 0, \"Cannot unstake 0 tokens!\");\r\n        daiToken.transfer(msg.sender, balance);\r\n        stakingBalance[msg.sender] = 0;\r\n    }\r\n\r\n    function issueTokens() public onlyOwner {\r\n        for (uint256 i = 0; i < stakers.length; i++) {\r\n            if (stakingBalance[stakers[i]] > 0) {\r\n                stakeToken.transfer(stakers[i], stakingBalance[stakers[i]]);\r\n            }\r\n        }\r\n    }\r\n}\r\n",
  "sourcePath": "C:\\Users\\admin\\Documents\\Blockchain test\\stakeout\\contracts\\TokenFarm.sol",
  "compiler": {
    "name": "solc",
    "version": "0.8.14+commit.80d49f37.Emscripten.clang"
  },
  "schemaVersion": "3.4.7",
  "updatedAt": "2022-06-01T08:19:37.476Z",
  "networkType": "ethereum",
  "devdoc": {
    "kind": "dev",
    "methods": {
      "owner()": {
        "details": "Returns the address of the current owner."
      },
      "renounceOwnership()": {
        "details": "Leaves the contract without owner. It will not be possible to call `onlyOwner` functions anymore. Can only be called by the current owner. NOTE: Renouncing ownership will leave the contract without an owner, thereby removing any functionality that is only available to the owner."
      },
      "transferOwnership(address)": {
        "details": "Transfers ownership of the contract to a new account (`newOwner`). Can only be called by the current owner."
      }
    },
    "version": 1
  },
  "userdoc": {
    "kind": "user",
    "methods": {},
    "version": 1
  }
}